:020000040000FA
:100000000C9458000C9480000C9480000C94800098
:100010000C9480000C9480000C9480000C94800060
:100020000C9480000C9480000C9480000C94800050
:100030000C9480000C9480000C9480000C94800040
:100040000C9401060C9480000C94CF050C94A90527
:100050000C9480000C9480000C9480000C94800020
:100060000C944B060C948000000000002500280032
:100070002B00040404040404040402020202020229
:10008000030303030303010204081020408001025C
:1000900004081020010204081020000000080002DB
:1000A00001000003040700000000000000006A07D0
:1000B00011241FBECFEFD8E0DEBFCDBF11E0A0E01E
:1000C000B1E0ECEAF8E102C005900D92AC34B10762
:1000D000D9F722E0ACE4B1E001C01D92A83BB20721
:1000E000E1F710E0C8E5D0E004C02197FE010E94CE
:1000F0004E0CC735D107C9F70E94A3070C94540CC6
:100100000C94000090910E0280910D022FEF3FEFB2
:10011000981748F4E92FF0E0E351FE4F208130E0DA
:100120009F5F90930E02C901089590910E028091F5
:100130000D022FEF3FEF981748F4E92FF0E0E3515D
:10014000FE4F208130E09F5F90930E02C901089519
:1001500080910D0290910E02891B990B08950895CC
:100160000895AF92BF92CF92DF92EF92FF920F93DA
:100170001F93CF93DF936C017B018B01040F151F3D
:10018000EB015E01AE18BF08C017D10759F06991A5
:10019000D601ED91FC910190F081E02DC601099509
:1001A000892B79F7C501DF91CF911F910F91FF90B6
:1001B000EF90DF90CF90BF90AF900895FC01538DEA
:1001C000448D252F30E0842F90E0821B930B541731
:1001D00010F0CF96089501970895FC01918D828DBE
:1001E000981761F0A28DAE0FBF2FB11D5D968C9157
:1001F000928D9F5F9F73928F90E008958FEF9FEF96
:100200000895FC01918D828D981731F0828DE80F51
:10021000F11D858D90E008958FEF9FEF0895FC010B
:10022000918D228D892F90E0805C9F4F821B9109D8
:100230008F73992708958FE092E00E940F0121E0CB
:10024000892B09F420E0822F089580E090E0892B2B
:1002500029F00E941B0181110C9400000895FC01FB
:10026000A48DA80FB92FB11DA35ABF4F2C91848D17
:1002700090E001968F739927848FA689B7892C9374
:10028000A089B1898C91837080648C93938D848DC7
:10029000981306C00288F389E02D80818F7D8083CA
:1002A0000895EF92FF920F931F93CF93DF93EC018A
:1002B00081E0888F9B8D8C8D98131AC0E889F9890D
:1002C000808185FF15C09FB7F894EE89FF89608310
:1002D000E889F98980818370806480839FBF81E091
:1002E00090E0DF91CF911F910F91FF90EF900895D3
:1002F000F62E0B8D10E00F5F1F4F0F731127E02EAE
:100300008C8D8E110CC00FB607FCFACFE889F989E5
:10031000808185FFF5CFCE010E942F01F1CFEB8DBB
:10032000EC0FFD2FF11DE35AFF4FF0829FB7F894B9
:100330000B8FEA89FB8980818062CFCFCF93DF93D7
:10034000EC01888D8823B9F0AA89BB89E889F989ED
:100350008C9185FD03C0808186FD0DC00FB607FC22
:10036000F7CF8C9185FFF2CF808185FFEDCFCE0155
:100370000E942F01E9CFDF91CF91089590E0FC0119
:10038000E656FF4F2491FC01EA57FF4F3491FC01E0
:10039000EE58FF4FE491EE23C9F0222339F02330C9
:1003A00001F1A8F4213019F1223029F1F0E0EE0F2B
:1003B000FF1FE859FF4FA591B4918FB7F894EC91C6
:1003C000611126C030953E233C938FBF089527309E
:1003D000A9F02830C9F0243049F7809180008F7D42
:1003E00003C0809180008F7780938000DFCF84B539
:1003F0008F7784BDDBCF84B58F7DFBCF8091B0003C
:100400008F778093B000D2CF8091B0008F7DF9CFED
:100410003E2BDACF3FB7F8948091950190919601E9
:10042000A0919701B091980126B5A89B05C02F3FD8
:1004300019F00196A11DB11D3FBFBA2FA92F982F0A
:100440008827BC01CD01620F711D811D911D42E005
:10045000660F771F881F991F4A95D1F708958F92CD
:100460009F92AF92BF92CF92DF92EF92FF924B0199
:100470005C010E940A026B017C010E940A026C1955
:100480007D098E099F09683E734081059105A8F397
:1004900021E0821A9108A108B10888EEC80E83E015
:1004A000D81EE11CF11C81149104A104B10429F7A8
:1004B000FF90EF90DF90CF90BF90AF909F908F9084
:1004C000089520916D01260F3327331F2132310506
:1004D000ECF42091E701FC0190E080E0243069F029
:1004E00082E00895A0916D012191AC01435B5E4FC4
:1004F000A40FB52FB11D2C930196861798F3809108
:100500006D01680F60936D0180E0089581E00895AA
:100510001092E70181E08093E6011092E10161E031
:1005200082E10E94BE0161E083E10E94BE01E9EB2D
:10053000F0E080818E7F808380818D7F808388E45E
:100540008093B80085E48093BC000895CF93DF9337
:1005500091E090934C018823B9F0C091B800D091FC
:10056000BA008091BC008A7B8093BC0060E082E18D
:100570000E94BE0160E083E10E94BE010E948802E9
:10058000D093BA00C093B800DF91CF910895CF9275
:10059000DF92EF92FF920F931F93CF93DF93D0914F
:1005A000C00181E0D13208F09CC0C091BF010E941F
:1005B0000A026B017C018091E70181116CC082E02D
:1005C0008093E70181E08093E6018FEF8093E5015E
:1005D0001092E401D093E301AFE9B1E0E1ECF1E086
:1005E00080E0D8138DC01092E2018091E201CC0F1F
:1005F000C82BC093E2018091E101813009F084C0F1
:100600001092E1010E940A026B017C018091E201DB
:100610008093BB008091E9019091EA01A091EB01E8
:10062000B091EC01892B8A2B8B2BA1F00E940A023E
:100630000091E9011091EA012091EB013091EC0168
:100640006C197D098E099F090617170728073907B6
:1006500008F442C08091BC0083FDD8CF85EC809324
:10066000BC000E940A026B017C018091E70182308C
:1006700009F44CC08091E5018F3F09F469C0809175
:10068000E501803209F466C08091E501803309F408
:1006900063C084E026C08091E9019091EA01A091B5
:1006A000EB01B091EC01892B8A2B8B2B09F483CFC2
:1006B0000E940A020091E9011091EA012091EB01E8
:1006C0003091EC016C197D098E099F0906171707F7
:1006D0002807390708F06FCF8091E8010E94A60231
:1006E00085E010929E011092C00110929D01DF9151
:1006F000CF911F910F91FF90EF90DF90CF900895D1
:100700009D9191938F5F6DCF85EEA9CF8091E90187
:100710009091EA01A091EB01B091EC01892B8A2B19
:100720008B2B09F4A2CF0E940A020091E9011091DB
:10073000EA012091EB013091EC016C197D098E09E1
:100740009F09061717072807390708F08ECFC4CF6F
:1007500080E0C7CF82E0C5CF83E0C3CF0895E091AA
:100760000E0280910D02E81730F4F0E0E351FE4FE5
:10077000808190E008958FEF9FEF0895CF92DF92F0
:10078000EF92FF920F931F93CF93DF937C01CB01E6
:100790008A0120919D01222389F0EB016B01C40E97
:1007A000D51ECC15DD0569F06991D701ED91FC915D
:1007B0000190F081E02DC7010995F3CF642F0E94CD
:1007C0006102C801DF91CF911F910F91FF90EF90CF
:1007D000DF90CF900895CF93DF931F92CDB7DEB710
:1007E000698320919D012223F9F02091C0012032DC
:1007F00058F021E030E0FC013383228390E080E078
:100800000F90DF91CF91089580919E01E82FF0E045
:10081000E156FE4F998190838F5F80939E01809374
:10082000C00181E090E0ECCF61E0CE0101960E9432
:100830006102F7CF682F8CEA92E00C94EB0390E012
:1008400080E00895FC0101900020E9F73197AF01A5
:10085000481B590BBC018FE092E00C94B1008F92C1
:100860009F92AF92BF920F931F93CF93DF93CDB719
:10087000DEB7A1970FB6F894DEBF0FBECDBF19A2A9
:10088000423008F44AE08E010F5D1F4F842E912CF8
:10089000B12CA12CA50194010E942C0CE62FB901CA
:1008A000CA01EA30F4F4E05DD801EE938D01232B08
:1008B000242B252B79F790E080E0109719F0CD01DB
:1008C0000E942204A1960FB6F894DEBF0FBECDBFE2
:1008D000DF91CF911F910F91BF90AF909F908F901C
:1008E0000895E95CE1CFCF92DF92EF92FF92CF9330
:1008F000DF936C01990FEE08FF08F7FE19C06DE257
:100900008FE092E00E945101EC0166277727CB012E
:100910006C197D098E099F094AE00E942F048C0FF3
:100920009D1FDF91CF91FF90EF90DF90CF900895C2
:100930004AE0C701B601DF91CF91FF90EF90DF90C1
:10094000CF900C942F04CF92DF92EF92FF920F93EF
:100950001F93CF93DF93D82F0E940A026B017C0173
:100960008091E701811165C0CD2F81E08093E7017F
:100970008093E6019FEF9093E5011092E4019D0FB3
:100980009093E3018093E2018091E201886180937A
:10099000E2018091E101813009F07FC01092E10114
:1009A0000E940A026B017C018091E2018093BB00EE
:1009B0008091E9019091EA01A091EB01B091EC01E5
:1009C000892B8A2B8B2BA1F00E940A020091E9014E
:1009D0001091EA012091EB013091EC016C197D0935
:1009E0008E099F09061717072807390708F442C020
:1009F0008091BC0083FDD8CF85EC8093BC000E9421
:100A00000A026B017C018091E701813009F447C043
:100A10008091E4018D1710F4C091E401A1ECB1E0E4
:100A2000EDEEF1E080E08C1751F19D9191938F5F95
:100A3000FACF8091E9019091EA01A091EB01B09188
:100A4000EC01892B8A2B8B2B09F48ACF0E940A0296
:100A50000091E9011091EA012091EB013091EC0144
:100A60006C197D098E099F09061717072807390792
:100A700008F076CF8091E8010E94A602C0E01092B3
:100A80000E02C0930D028C2FDF91CF911F910F9119
:100A9000FF90EF90DF90CF90089585EEAECF8091DC
:100AA000E9019091EA01A091EB01B091EC01892B51
:100AB0008A2B8B2B09F4A7CF0E940A020091E9012F
:100AC0001091EA012091EB013091EC016C197D0944
:100AD0008E099F09061717072807390708F093CFD3
:100AE000C9CF85ED8093BC008091E9019091EA0126
:100AF000A091EB01B091EC010796A11DB11D23E07F
:100B0000B695A795979587952A95D1F72091BC0022
:100B100024FD03C01092E70108954091E90150912E
:100B2000EA016091EB017091EC01452B462B472BBC
:100B300069F30097A105B10541F02AE22A95F1F782
:100B400000C00197A109B109E1CF8091E8010C949F
:100B5000A6021F920F920FB60F9211242F933F936C
:100B60004F935F936F937F938F939F93AF93BF93B5
:100B7000EF93FF938FE092E00E942F01FF91EF919E
:100B8000BF91AF919F918F917F916F915F914F91A5
:100B90003F912F910F900FBE0F901F9018951F92AD
:100BA0000F920FB60F9211242F938F939F93EF9371
:100BB000FF93E0911F02F09120028081E0912502D5
:100BC000F091260282FD1BC09081809128028F5FE8
:100BD0008F7320912902821741F0E0912802F0E002
:100BE000E15FFD4F958F80932802FF91EF919F91D8
:100BF0008F912F910F900FBE0F901F9018958081AD
:100C0000F4CF1F920F920FB60F9211242F933F93A0
:100C10008F939F93AF93BF93809191019091920195
:100C2000A0919301B09194013091900123E0230FA2
:100C30002D3758F50196A11DB11D20939001809389
:100C4000910190939201A0939301B09394018091AC
:100C5000950190919601A0919701B091980101960C
:100C6000A11DB11D8093950190939601A0939701CA
:100C7000B0939801BF91AF919F918F913F912F9128
:100C80000F900FBE0F901F90189526E8230F029625
:100C9000A11DB11DD2CF1F920F920FB60F9211243A
:100CA0002F933F934F935F936F937F938F939F9374
:100CB000AF93BF93EF93FF938091B900887F803605
:100CC00009F44AC0F0F5883209F4A7C018F580315C
:100CD00009F49BC0B8F4882309F4F9C0883009F4FA
:100CE00094C0FF91EF91BF91AF919F918F917F91B0
:100CF0006F915F914F913F912F910F900FBE0F9089
:100D00001F901895883109F488C0803251F780937C
:100D1000E50114C0803409F49DC040F48033B9F378
:100D20008833F9F68093E50185ECB0C0803509F48D
:100D300085C0883509F496C0883499F60E947105FB
:100D4000D0CF883909F48CC038F5883729F050F4B1
:100D5000883611F0803729F683E08093E7011092FE
:100D60008F0157C0883809F47BC0803919F080386A
:100D700009F0B7CF80918F01803208F071C0E09107
:100D80008F0181E08E0F80938F018091BB00F0E096
:100D9000E159FE4F80833DC0803B39F0E0F4803A5A
:100DA00009F479C0883A09F09CCF84E08093E70188
:100DB00010926E0110926D01E0919B01F0919C01E7
:100DC000099580916D0181110FC081E080936D01C3
:100DD00010924D0109C0803C09F4A6CF883C09F46B
:100DE000A3CF883B09F07DCFE0916E0181E08E0FAB
:100DF00080936E01F0E0E35BFE4F80818093BB0047
:100E000090916E0180916D0129C08091E2018093E3
:100E1000BB0085EC8093BC0064CF9091E40180918D
:100E2000E301981758F5E091E40181E08E0F80937B
:100E3000E401F0E0EF53FE4F8081E9CFE091E4015F
:100E400081E08E0F8093E4018091BB00F0E0EF53CE
:100E5000FE4F80839091E4018091E3019817C8F2DE
:100E600085E8D8CFE091E40181E08E0F8093E40122
:100E70008091BB00F0E0EF53FE4F80838091E6014C
:100E800081115CCF81E08093E10184EA8093BC0012
:100E90001092E70126CF85EC8093BC001092E70109
:100EA00080918F01803230F4E0918F01F0E0E159C0
:100EB000FE4F108260918F0170E0E0919901F091F6
:100EC0009A018FE691E0099510928F010ACF109256
:100ED000E50134CFEFE0F2E01382128288EE93E076
:100EE000A0E0B0E084839583A683B78324E031E05B
:100EF0003183208325EC30E03587248724EC30E0F3
:100F00003787268720EC30E0318B208B21EC30E0D6
:100F1000338B228B22EC30E0358B248B26EC30E0B7
:100F2000378B268B118E128E138E148EECEAF2E024
:100F30001382128284839583A683B78386E191E02E
:100F4000918380830895CF93DF93CDB7DEB72A973F
:100F50000FB6F894DEBF0FBECDBF789484B5826023
:100F600084BD84B5816084BD85B5826085BD85B54D
:100F7000816085BD80916E00816080936E001092CB
:100F80008100809181008260809381008091810046
:100F900081608093810080918000816080938000D7
:100FA0008091B10084608093B1008091B000816035
:100FB0008093B00080917A00846080937A00809161
:100FC0007A00826080937A0080917A0081608093B9
:100FD0007A0080917A00806880937A001092C10034
:100FE00010920E0210920D0210929E011092C001FA
:100FF0000E9488028FEA90E090939C0180939B016D
:1010000080EB90E090939A0180939901E0911F0208
:10101000F091200282E08083E0911B02F0911C029B
:101020001082E0911D02F0911E0280E180831092F7
:101030002702E0912302F091240286E08083E09170
:101040002102F0912202808180618083E09121025F
:10105000F0912202808188608083E0912102F091EA
:101060002202808180688083E0912102F091220237
:1010700080818F7D808381E080939D018CE08093CF
:10108000BF0180E690E00E941A0490E080E00E9498
:101090001A048CE590E00E941A0490E080E00E941F
:1010A0001A040E94C70281E090E00E94A30480918C
:1010B0000D0290910E02891B990B019711F40E9469
:1010C000950081E080939D0110929E011092C001D5
:1010D00080E690E00E941A0482E090E00E941A04E8
:1010E00084EB90E00E941A0488E090E00E941A04C9
:1010F0000E94C70281E090E00E94A30480910D024B
:1011000090910E02891B990B019711F40E94950092
:101110006CE271E080E090E00E942F0221E02093D9
:101120009D013CE03093BF0110929E011092C001DE
:101130008FE390E00E941A040E94C70281E090E0D1
:101140000E94A30480910D0290910E02891B990BBD
:10115000019711F40E94950064E670E080E090E051
:101160000E942F0281E080939D0110929E011092B7
:10117000C0018FE490E00E941A040E94C70289E037
:1011800090E00E94A3040E9495000E949500D82E32
:101190000E9495007C010E949500782E0E94950087
:1011A0005C010E949500882E0E9495008C010E948F
:1011B0009500982E0E9495009A878987DA82198275
:1011C00029813A81E22AF32AB70190E080E0645A4B
:1011D000744B810991090E94050B2DEC3CEC44E312
:1011E00052E40E94620A20E030E048EC51E40E94A0
:1011F000F1096B017C011B012C017C821B826B803D
:101200007C806A287B288E821D828D819E81082B9E
:10121000192B98861F8229853A858F819885282BDE
:10122000392B3A87298784E291E00E942204A701A2
:101230009601C701B6010E94270C8823E9F181E3DA
:1012400091E00E9422048DE391E00E9422048FE34A
:1012500091E00E942204C3010E9473048DE391E097
:101260000E94220482E491E00E942204C8010E94AC
:1012700073048DE391E00E94220485E491E00E94D2
:10128000220489859A850E94730488E491E00E9473
:10129000220464E670E080E090E00E942F0220E0EB
:1012A00030E0232B09F43ACF0E941B01882309F474
:1012B00035CF0E94000032CF46015701E894B7F8BD
:1012C0002FEF3FEF4FE75FE7C501B4010E94270C06
:1012D00081110DC02FEF3FEF4FE75FE7C501B4016C
:1012E0000E945D0A18161CF485E391E0AACF2FEF47
:1012F0003FEF4FE75FE4C701B6010E94B50B181638
:101300001CF489E391E09DCF2FEF3FEF4FE75FECB7
:10131000C701B6010E945D0A87FDF3CF20E030E0EF
:10132000A901C701B6010E945D0A87FF0BC06DE2EB
:101330008FE092E00E9451011601270157FA509464
:1013400057F850942AE037ED43EA5BE3C201B1015C
:101350000E94F1094B015C010E94D40A6B017C01DF
:101360000E94030B9B01AC01C501B4010E94F0096E
:101370004B015C014AE0C701B6010E942F046EE2F6
:101380008FE092E00E94510120E030E040E251E421
:10139000C501B4010E94BA0B4B015C010E94D40A42
:1013A0006B01F12CE12C4AE0C701B6010E942F0429
:1013B000C701B6010E94030B9B01AC01C501B4013A
:1013C0000E94F00920E030E040E251E40E94BA0BB4
:1013D0000E94D40A90E080E04AE00E942F0433CFBC
:1013E0005058BB27AA270E94080A0C947B0B0E9426
:1013F0006D0B38F00E94740B20F039F49F3F19F404
:1014000026F40C946A0B0EF4E095E7FB0C94640B45
:10141000E92F0E948C0B58F3BA17620773078407F1
:10142000950720F079F4A6F50C94AE0B0EF4E09538
:101430000B2EBA2FA02D0B01B90190010C01CA018E
:10144000A0011124FF27591B99F0593F50F4503E39
:1014500068F11A16F040A22F232F342F4427585F2B
:10146000F3CF469537952795A795F0405395C9F743
:101470007EF41F16BA0B620B730B840BBAF09150FB
:10148000A1F0FF0FBB1F661F771F881FC2F70EC09A
:10149000BA0F621F731F841F48F48795779567956D
:1014A000B795F7959E3F08F0B0CF9395880F08F059
:1014B0009927EE0F9795879508950E94400B08F4A1
:1014C00081E008950E94760A0C947B0B0E94740BB5
:1014D00058F00E946D0B40F029F45F3F29F00C9406
:1014E000640B51110C94AF0B0C946A0B0E948C0B83
:1014F00068F39923B1F3552391F3951B550BBB2743
:10150000AA2762177307840738F09F5F5F4F220F87
:10151000331F441FAA1FA9F335D00E2E3AF0E0E87E
:1015200032D091505040E695001CCAF72BD0FE2FC8
:1015300029D0660F771F881FBB1F2617370748075C
:10154000AB07B0E809F0BB0B802DBF01FF27935814
:101550005F4F3AF09E3F510578F00C94640B0C9469
:10156000AF0B5F3FE4F3983ED4F38695779567958C
:10157000B795F7959F5FC9F7880F911D9695879549
:1015800097F90895E1E0660F771F881FBB1F621768
:1015900073078407BA0720F0621B730B840BBA0B26
:1015A000EE1F88F7E09508950E94940B88F09F57EE
:1015B00098F0B92F9927B751B0F0E1F0660F771F77
:1015C000881F991F1AF0BA95C9F714C0B13091F06D
:1015D0000E94AE0BB1E008950C94AE0B672F782FEC
:1015E0008827B85F39F0B93FCCF386957795679532
:1015F000B395D9F73EF490958095709561957F4F9E
:101600008F4F9F4F0895E89409C097FB3EF4909543
:101610008095709561957F4F8F4F9F4F9923A9F0CB
:10162000F92F96E9BB279395F6958795779567955A
:10163000B795F111F8CFFAF4BB0F11F460FF1BC09E
:101640006F5F7F4F8F4F9F4F16C0882311F096E931
:1016500011C0772321F09EE8872F762F05C06623DF
:1016600071F096E8862F70E060E02AF09A95660F98
:10167000771F881FDAF7880F9695879597F9089551
:10168000990F0008550FAA0BE0E8FEEF1616170693
:10169000E807F907C0F012161306E407F50798F0FB
:1016A000621B730B840B950B39F40A2661F0232B14
:1016B000242B252B21F408950A2609F4A140A69590
:1016C0008FEF811D811D089597F99F6780E870E075
:1016D00060E008959FEF80EC089500240A941616A8
:1016E000170618060906089500240A941216130610
:1016F000140605060895092E0394000C11F488239E
:1017000052F0BB0F40F4BF2B11F460FF04C06F5FB9
:101710007F4F8F4F9F4F089557FD9058440F551F8F
:1017200059F05F3F71F04795880F97FB991F61F063
:101730009F3F79F087950895121613061406551FDA
:10174000F2CF4695F1DF08C0161617061806991F46
:10175000F1CF86957105610508940895E894BB273B
:1017600066277727CB0197F908950E94400B08F46C
:101770008FEF08950E94CD0B0C947B0B0E946D0B94
:1017800038F00E94740B20F0952311F00C94640B38
:101790000C946A0B11240C94AF0B0E948C0B70F309
:1017A000959FC1F3950F50E0551F629FF001729F06
:1017B000BB27F00DB11D639FAA27F00DB11DAA1F15
:1017C000649F6627B00DA11D661F829F2227B00D62
:1017D000A11D621F739FB00DA11D621F839FA00DED
:1017E000611D221F749F3327A00D611D231F849F3D
:1017F000600D211D822F762F6A2F11249F57504094
:101800009AF0F1F088234AF0EE0FFF1FBB1F661F0E
:10181000771F881F91505040A9F79E3F510580F0D7
:101820000C94640B0C94AF0B5F3FE4F3983ED4F33D
:10183000869577956795B795F795E7959F5FC1F77B
:10184000FE2B880F911D9695879597F908950E9414
:10185000400B880B990B0895A1E21A2EAA1BBB1B03
:10186000FD010DC0AA1FBB1FEE1FFF1FA217B3076C
:10187000E407F50720F0A21BB30BE40BF50B661F82
:10188000771F881F991F1A9469F760957095809546
:1018900090959B01AC01BD01CF010895EE0FFF1F94
:1018A0000590F491E02D0994F894FFCF000000001A
:1018B0005101B100DE009E010F01ED0001010000A9
:1018C0000000EB03BE031F04AE03A8008200AF03B9
:1018D00054656D70657261747572653A006E616E03
:1018E00000696E66006F7666002C00783A00793ADF
:0818F000007A3A000D0A000025
:107E0000112484B714BE81FFF0D085E080938100F7
:107E100082E08093C00088E18093C10086E0809377
:107E2000C20080E18093C4008EE0C9D0259A86E02C
:107E300020E33CEF91E0309385002093840096BBD3
:107E4000B09BFECF1D9AA8958150A9F7CC24DD24C4
:107E500088248394B5E0AB2EA1E19A2EF3E0BF2EE7
:107E6000A2D0813461F49FD0082FAFD0023811F036
:107E7000013811F484E001C083E08DD089C08234E0
:107E800011F484E103C0853419F485E0A6D080C0E4
:107E9000853579F488D0E82EFF2485D0082F10E0AE
:107EA000102F00270E291F29000F111F8ED06801E7
:107EB0006FC0863521F484E090D080E0DECF843638
:107EC00009F040C070D06FD0082F6DD080E0C81688
:107ED00080E7D80618F4F601B7BEE895C0E0D1E017
:107EE00062D089930C17E1F7F0E0CF16F0E7DF06D8
:107EF00018F0F601B7BEE89568D007B600FCFDCFD4
:107F0000A601A0E0B1E02C9130E011968C91119780
:107F100090E0982F8827822B932B1296FA010C0160
:107F200087BEE89511244E5F5F4FF1E0A038BF0790
:107F300051F7F601A7BEE89507B600FCFDCF97BE46
:107F4000E89526C08437B1F42ED02DD0F82E2BD052
:107F50003CD0F601EF2C8F010F5F1F4F84911BD097
:107F6000EA94F801C1F70894C11CD11CFA94CF0C13
:107F7000D11C0EC0853739F428D08EE10CD085E9AC
:107F80000AD08FE07ACF813511F488E018D01DD067
:107F900080E101D065CF982F8091C00085FFFCCF94
:107FA0009093C60008958091C00087FFFCCF809118
:107FB000C00084FD01C0A8958091C6000895E0E648
:107FC000F0E098E1908380830895EDDF803219F02E
:107FD00088E0F5DFFFCF84E1DECF1F93182FE3DFCA
:107FE0001150E9F7F2DF1F91089580E0E8DFEE27F6
:047FF000FF270994CA
:027FFE00040479
:00000001FF
